:100000000C941D030C9445030C9445030C94450378
:100010000C9445030C942E180C9445030C94450342
:100020000C9445030C9445030C9445030C94450330
:100030000C9445030C9445030C9445030C94450320
:100040000C94C9160C9445030C9445030C94450379
:100050000C9445030C9445030C9445030C94450300
:100060000C9413170C94450300000000003E5B4FF6
:100070005B3E3E6B4F6B3E1C3E7C3E1C183C7E3C08
:10008000181C577D571C1C5E7F5E1C00183C180016
:10009000FFE7C3E7FF0018241800FFE7DBE7FF30A6
:1000A000483A060E2629792926407F050507407F14
:1000B00005253F5A3CE73C5A7F3E1C1C08081C1C87
:1000C0003E7F14227F22145F5F005F5F06097F017D
:1000D0007F006689956A606060606094A2FFA29468
:1000E00008047E040810207E201008082A1C080836
:1000F0001C2A08081E101010100C1E0C1E0C303884
:100100003E3830060E3E0E06000000000000005F84
:1001100000000007000700147F147F14242A7F2AA0
:100120001223130864623649562050000807030062
:10013000001C2241000041221C002A1C7F1C2A08AE
:10014000083E080800807030000808080808000011
:1001500060600020100804023E5149453E00427F85
:10016000400072494949462141494D331814127FD4
:100170001027454545393C4A494931412111090774
:100180003649494936464949291E000014000000F5
:1001900040340000000814224114141414140041C7
:1001A00022140802015909063E415D594E7C121184
:1001B000127C7F494949363E414141227F414141BC
:1001C0003E7F494949417F090909013E4141517337
:1001D0007F0808087F00417F41002040413F017FA8
:1001E000081422417F404040407F021C027F7F0470
:1001F00008107F3E4141413E7F090909063E4151B9
:10020000215E7F09192946264949493203017F01A8
:10021000033F4040403F1F2040201F3F4038403FA9
:10022000631408146303047804036159494D4300BF
:100230007F4141410204081020004141417F0402F6
:10024000010204404040404000030708002054548D
:1002500078407F284444383844444428384444286B
:100260007F385454541800087E090218A4A49C78BE
:100270007F0804047800447D40002040403D007F1A
:100280001028440000417F40007C047804787C08FA
:100290000404783844444438FC18242418182424CE
:1002A00018FC7C08040408485454542404043F44B3
:1002B000243C4040207C1C2040201C3C4030403CE2
:1002C00044281028444C9090907C4464544C440042
:1002D00008364100000077000000413608000201A6
:1002E0000204023C2623263C1EA1A161123A404092
:1002F000207A38545455592155557941225454780F
:1003000042215554784020545579400C1E527212A7
:100310003955555559395454545939555454580030
:1003200000457C410002457D420001457C407D1234
:1003300011127DF0282528F07C5455450020545496
:100340007C547C0A097F4932494949323A44444441
:100350003A324A4848303A4141217A3A424020787C
:10036000009DA0A07D3D4242423D3D4040403D3C7D
:1003700024FF2424487E4943662B2FFC2F2BFF09A2
:1003800029F620C0887E0903205454794100004496
:100390007D413048484A32384040227A007A0A0A81
:1003A000727D0D19317D2629292F282629292926F4
:1003B00030484D4020380808080808080808382F39
:1003C00010C8ACBA2F102834FA00007B00000814C3
:1003D0002A142222142A14085500550055AA55AA99
:1003E00055AAFF55FF55FF000000FF00101010FF39
:1003F00000141414FF001010FF00FF1010F010F094
:10040000141414FC001414F700FF0000FF00FF1484
:1004100014F404FC141417101F10101F101F1414D0
:10042000141F00101010F0000000001F101010101A
:100430001F10101010F010000000FF10101010100E
:1004400010101010FF10000000FF140000FF00FF4C
:1004500000001F10170000FC04F4141417101714E8
:1004600014F404F40000FF00F7141414141414140A
:10047000F700F7141414171410101F101F1414147D
:10048000F4141010F010F000001F101F0000001FE7
:1004900014000000FC140000F010F01010FF10FF1A
:1004A000141414FF141010101F00000000F010FFAF
:1004B000FFFFFFFFF0F0F0F0F0FFFFFF0000000093
:1004C00000FFFF0F0F0F0F0F3844443844FC4A4A17
:1004D0004A347E02020606027E027E0263554941CC
:1004E000633844443C04407E201E2006027E020203
:1004F00099A5E7A5991C2A492A1C4C7201724C3017
:100500004A4D4D303048784830BC625A463D3E49ED
:100510004949007E0101017E2A2A2A2A2A44445F91
:10052000444440514A444040444A51400000FF0185
:1005300003E080FF000008086B6B08361236243693
:10054000060F090F060000181800000010100030F8
:1005500040FF0101001F01011E00191D1712003C80
:100560003C3C3C000000000000000000240027008C
:100570002A000000000023002600290000000008D7
:10058000000201000003040700000000000000005A
:1005900004E010021C07123732292D29252B3900BF
:1005A000010310E110031D07062E2C292D2E2E37D6
:1005B0003F0000021013800A298064022A04000010
:1005C000007F2B040000009F0F0180961180FFB177
:1005D00003012C2DB203012C2DB306012C2D012C6F
:1005E0002DB40107C003A20284C101C5C2020A00E2
:1005F000C3028A2AC4028AEEC5010E20003601C851
:100600003A0105010204081020408001020408108C
:100610002001020408102000000000250028002B03
:10062000000404040404040404020202020202039B
:10063000030303030300B818311B11241FBECFEFBF
:10064000D8E0DEBFCDBF22E0AAE0B2E001C01D923B
:10065000A73EB207E1F712E0A0E0B1E0EAE3F0E480
:1006600002C005900D92AA30B107D9F713E0CCE192
:10067000D3E004C02197FE010E94041ECB31D107B4
:10068000C9F70E9492190C9410200C940000AF92AC
:10069000BF92CF92DF92EF92FF920F931F93CF936F
:1006A000DF936C017B018B01040F151FEB015E01D1
:1006B000AE18BF08C017D10759F06991D601ED9166
:1006C000FC910190F081E02DC6010995892B79F705
:1006D000C501DF91CF911F910F91FF90EF90DF90B7
:1006E000CF90BF90AF900895833081F028F481308F
:1006F00099F08230A9F008958730A9F08830C9F0C8
:100700008430B1F4809180008F7D03C0809180009F
:100710008F7780938000089584B58F7784BD089586
:1007200084B58F7DFBCF8091B0008F778093B00030
:1007300008958091B0008F7DF9CFCF93DF93282F5C
:1007400030E0F901E458FA4F8491F901ED5FF94F77
:10075000D491F901EF5DF94FC491CC23A1F081113F
:100760000E947403EC2FF0E0EE0FFF1FEE58FA4FDB
:10077000A591B491EC91ED2381E090E009F480E043
:10078000DF91CF91089580E090E0FACF1F93CF934F
:10079000DF93282F30E0F901E458FA4F8491F901F2
:1007A000ED5FF94FD491F901EF5DF94FC491CC237E
:1007B000A9F0162F81110E947403EC2FF0E0EE0FC8
:1007C000FF1FE95EF94FA591B4918FB7F894EC91B2
:1007D000111108C0D095DE23DC938FBFDF91CF913C
:1007E0001F910895DE2BF8CFCF93DF9390E0FC01AB
:1007F000ED5FF94F24918F5D994FFC01849188231F
:10080000C9F090E0880F991FFC01E859FA4FA591B3
:10081000B491FC01E95EF94FC591D49161110DC00D
:100820009FB7F8948C91209582238C9388812823FC
:1008300028839FBFDF91CF910895623051F49FB715
:10084000F8943C91822F809583238C93E8812E2B02
:10085000EFCF8FB7F894EC912E2B2C938FBFEACF6C
:100860003FB7F8948091850290918602A09187020B
:10087000B091880226B5A89B05C02F3F19F00196BC
:10088000A11DB11D3FBFBA2FA92F982F8827BC01EA
:10089000CD01620F711D811D911D42E0660F771F12
:1008A000881F991F4A95D1F708958F929F92AF9212
:1008B000BF92CF92DF92EF92FF926B017C010E9478
:1008C00030044B015C01C114D104E104F104B9F01E
:1008D0000E943004681979098A099B09683E7340AF
:1008E0008105910580F321E0C21AD108E108F108E1
:1008F00088EE880E83E0981EA11CB11CE4CFFF9007
:10090000EF90DF90CF90BF90AF909F908F90089521
:1009100020913602260F3327331F21323105ECF4A4
:1009200020915A02FC0190E080E0243069F082E0DE
:100930000895A09136022191AC014A5E5D4FA40F4B
:10094000B52FB11D2C930196861798F3809136022E
:10095000680F6093360280E0089581E0089508955D
:100960008FEF9FEF08958FEF9FEF089580910F0213
:1009700090E09195819591090895CF93DF93CB01F4
:10098000EA01642F0E948804CE01DF91CF9108957F
:10099000CF93DF931F92CDB7DEB7698361E0CE01BD
:1009A00001960E94880481E090E00F90DF91CF9142
:1009B00008950F931F93CF93DF938C01FC018281E5
:1009C0000E949D03EC01F80181810E949D03F801C2
:1009D00090819F70CC0FDD1FC82BF4E09F9FC0015A
:1009E0001124865F9E4FC80FD92FD11D8881F80131
:1009F00080838073DF91CF911F910F910895FC0147
:100A0000A5A1B6A18C9192A589238C93A5A1B6A18D
:100A10008C9191A5892B8C930895DC019396ED918F
:100A2000FC919497908198968C9189238083089566
:100A3000DC019396ED91FC919497908197968C911F
:100A4000892B80830895DC019196ED91FC9192971A
:100A5000908196968C91892380830895DC019196EC
:100A6000ED91FC919297908195968C91892B808342
:100A70000895CF92DF92EF92FF921F93CF93DF936F
:100A8000EC016A017B018DA9811123C08F2D99276B
:100A9000AA27BB278EBD0DB407FEFDCFC701AA272D
:100AA000BB278EBD0DB407FEFDCFBB27AF2D9E2DFE
:100AB0008D2D8EBD0DB407FEFDCFCEBC0DB407FE4F
:100AC000FDCFDF91CF911F91FF90EF90DF90CF90FE
:100AD00008958130B1F410E2CE01F7FE0FC00E94FC
:100AE0002E05CE010E941805CE010E940D05CC0CEA
:100AF000DD1CEE1CFF1C115079F7E3CF0E9423058B
:100B0000F0CFEF8DF8A18F2D9927AA27BB278083DF
:100B1000CE010E94FF04EF8DF8A1C701AA27BB27D1
:100B20008083CE010E94FF04EF8DF8A1BB27AF2D7B
:100B30009E2D8D2D8083CE010E94FF04EF8DF8A1A4
:100B4000C082CE01DF91CF911F91FF90EF90DF9097
:100B5000CF900C94FF04FF920F931F93CF93DF93DA
:100B6000EC018B018DA981110EC01EBD0DB407FED5
:100B7000FDCF0EBD0DB407FEFDCFDF91CF911F91CC
:100B80000F91FF9008958130B1F490E1F92ECE01DC
:100B900017FF0EC00E942E05CE010E941805CE013F
:100BA0000E940D05000F111FFA94F110F0CFE5CF50
:100BB0000E942305F1CFEF8DF8A11083CE010E9492
:100BC000FF04EF8DF8A10083CE01DF91CF911F913B
:100BD0000F91FF900C94FF040F931F93CF93DF931B
:100BE000EC01162F8DA9811109C06EBD0DB407FE51
:100BF000FDCFDF91CF911F910F910895813099F42E
:100C000008E0CE0117FF0CC00E942E05CE010E9405
:100C10001805110FCE010E940D05015091F7E9CF83
:100C20000E942305F3CFEF8DF8A16083CE01DF9101
:100C3000CF911F910F910C94FF04CF93DF93EC01A0
:100C4000ED8DFE8D80819CA989238083CE010E9439
:100C5000EC05ED8DFE8D80819BA9892B8083DF9132
:100C6000CF9108958F929F92AF92BF92CF92DF92D1
:100C7000EF92FF920F931F93CF93DF93EC0189AD17
:100C80009AAD680F791F8BAD9CAD480F591F21504D
:100C90003109260F371F4901B12CA12CCB01B0E03F
:100CA000A0E0DC0199278827882A992AAA2ABB2A4A
:100CB000680181E0C81AD108C40ED51EF12CE12CC0
:100CC00070E060E0BA0155274427C42AD52AE62AF5
:100CD000F72A6AE2CE010E941D06B501A401CE01E9
:100CE0000E9439056BE2CE010E941D06B701A601E4
:100CF000CE010E9439056CE2CE01DF91CF911F91A8
:100D00000F91FF90EF90DF90CF90BF90AF909F90AA
:100D10008F900C941D06FC0185A9811104C091A13E
:100D200082A19CBD8DBD08951F93CF93DF93EC01ED
:100D3000162FE881F9810284F385E02D09951123AE
:100D400071F06DADCE010E941D06E881F981068823
:100D5000F789E02DCE01DF91CF911F9109946EADFF
:100D6000F1CFAF92BF92CF92DF92EF92FF920F93AB
:100D70001F93CF93DF93EC0177FD38C08885998569
:100D8000681779079CF557FD31C08A859B85481700
:100D9000590764F569017A015B01E881F9810284F0
:100DA000F385E02DCE010995E881F98102A4F3A530
:100DB000E02D01E010E021E030E0A701B501CE0117
:100DC0000995B601CE010E94AB05E881F98106883C
:100DD000F789E02DCE01DF91CF911F910F91FF9008
:100DE000EF90DF90CF90BF90AF900994DF91CF91BB
:100DF0001F910F91FF90EF90DF90CF90BF90AF9039
:100E000008958F929F92AF92BF92CF92DF92EF920E
:100E1000FF920F931F93CF93DF93EC01490157018A
:100E2000E881F98102A4F3A5E02D09959401D80188
:100E30000E940A1E6B017C01C114D104E104F1047B
:100E400009F47DC08DA9811115C081E0C81AD108AF
:100E5000E108F1088FEFC816D806E806F80609F48D
:100E60006EC0BEBC0DB407FEFDCFAEBC0DB407FE18
:100E7000FDCFEBCF813099F581E0C81AD108E108A8
:100E8000F1088FEFC816D806E806F80609F457C02F
:100E90000B2D18E0CE0107FF1CC00E942E05CE01CD
:100EA0000E941805CE010E940D05000F115091F708
:100EB0000A2D18E0CE0107FF0FC00E942E05CE01BB
:100EC0000E941805CE010E940D05000F115091F7E8
:100ED000D3CF0E942305E3CF0E942305F0CFBA10A1
:100EE00016C0CC0CDD1CEE1CFF1CEF8DF8A1B082EF
:100EF00081E0C81AD108E108F1088FEFC816D806BA
:100F0000E806F806E1F0CE010E94FF04F1CF81E08F
:100F1000C81AD108E108F1088FEFC816D806E8060C
:100F2000F80669F0EF8DF8A1B082CE010E94FF04AF
:100F3000EF8DF8A1A082CE010E94FF04E8CFDF91DF
:100F4000CF911F910F91FF90EF90DF90CF90BF90C6
:100F5000AF909F908F9008958F929F92AF92BF9283
:100F6000CF92DF92EF92FF920F931F93CF93DF9375
:100F70004C01EB016A01590137FF07C0C901019615
:100F8000C80FD91FB194A194B108F401A085B1850F
:100F9000CA17DB070CF058C017FF07C0C80101963D
:100FA000C80ED91E119501951109F401828593850A
:100FB000C816D9060CF048C0FE01EA0DFB1DAF01B2
:100FC0004150510957FD40C0B601600F711F9B0190
:100FD0002150310937FD38C0D7FF03C05F01D0E091
:100FE000C0E0D7FE03C08B01D12CC12C4A175B0790
:100FF0001CF05D01AC1ABD0A281739071CF08C01E2
:101000000C191D09D401ED91FC910284F385E02DAA
:10101000C40109959501A601BE01C4010E94010702
:10102000D401ED91FC910688F789E02DC401DF9190
:10103000CF911F910F91FF90EF90DF90CF90BF90D5
:10104000AF909F908F900994DF91CF911F910F9156
:10105000FF90EF90DF90CF90BF90AF909F908F90D8
:101060000895EF92FF920F931F932115310529F0F8
:101070000115110511F00E94AC071F910F91FF900F
:10108000EF9008958F929F92AF92BF92CF92DF928E
:10109000EF92FF920F931F93CF93DF935C014B016D
:1010A0006A01E90177FD52C0DC0118968D919C918F
:1010B000681779070CF04AC0209709F447C037FF3A
:1010C00007C0C9010196C80ED91ED195C195D10995
:1010D000F50182859385C816D906C4F5A6014C0F83
:1010E0005D1F9A012150310937FD30C0D7FE03C082
:1010F000EA01D12CC12C281739071CF0EC01CC19BE
:10110000DD09D501ED91FC910284F385E02DC50147
:10111000099578018E0121E030E0A601B401C501F6
:101120000E940107D501ED91FC910688F789E02D19
:10113000C501DF91CF911F910F91FF90EF90DF904C
:10114000CF90BF90AF909F908F900994DF91CF91F7
:101150001F910F91FF90EF90DF90CF90BF90AF90D5
:101160009F908F9008958F929F92AF92BF92CF924F
:10117000DF92EF92FF920F931F93CF93DF935C0167
:101180006B014A01E90157FD52C0DC011A968D91AD
:101190009C91481759070CF04AC0209709F447C0A2
:1011A00037FF07C0C9010196C80ED91ED195C19558
:1011B000D109F50180859185C816D906C4F5A60127
:1011C0004C0F5D1F9A012150310937FD30C0D7FE09
:1011D00003C0EA01D12CC12C281739071CF0EC01FF
:1011E000CC19DD09D501ED91FC910284F385E02D48
:1011F000C5010995780101E010E09E01A401B60146
:10120000C5010E940107D501ED91FC910688F7897F
:10121000E02DC501DF91CF911F910F91FF90EF90CD
:10122000DF90CF90BF90AF909F908F900994DF9107
:10123000CF911F910F91FF90EF90DF90CF90BF90D3
:10124000AF909F908F900895EF92FF920F931F930E
:10125000CF93DF9377FD32C0DC011896ED91FC91BE
:101260006E177F075CF52115310541F137FF07C087
:10127000F90131964E0F5F1F319521953109DC013F
:101280001A96ED91FC914E175F07C4F4EA01C20F64
:10129000D31FDE011197B7FD11C057FF03C09E0198
:1012A00050E040E0AE17BF071CF09F01241B350B38
:1012B0007801890121E030E00E940107DF91CF91A0
:1012C0001F910F91FF90EF900895EF92FF920F936F
:1012D0001F93CF93DF9357FD31C0DC011A96ED9138
:1012E000FC914E175F0754F52115310539F137FF91
:1012F00007C0F90131966E0F7F1F31952195310995
:10130000DC011896ED91FC916E177F07BCF4EB01A0
:10131000C20FD31FDE011197B7FD10C077FF03C0C6
:101320009E0170E060E0AE17BF071CF09F01261B16
:10133000370B780101E010E00E940107DF91CF91A7
:101340001F910F91FF90EF9008958F929F92AF920F
:10135000BF92CF92DF92EF92FF920F931F93CF93A2
:10136000DF9347012115310509F44BC00115110523
:1013700009F447C037FF07C0F90131966E0F7F1F90
:10138000319521953109DC011896AD90BC906A1514
:101390007B05BCF517FF07C0F80131964E0F5F1FA4
:1013A000119501951109DC011A96ED91FC914E17EA
:1013B0005F073CF56B01C20ED31EE6012197D7FDF6
:1013C00020C07A01E00EF11ED7011197B7FD19C0B8
:1013D00077FF03C0960170E060E057FF03C087010C
:1013E00050E040E0CA15DB051CF09501261B370BC9
:1013F000AE17BF071CF08F01041B150B74010E9470
:101400000107DF91CF911F910F91FF90EF90DF9037
:10141000CF90BF90AF909F908F900895EF92FF92E2
:101420000F931F93CF93DF93EC0177FD22C0888544
:10143000998568177907ECF457FD1BC08A859B8551
:1014400048175907B4F47901E881F98102A4F3A59A
:10145000E02D01E010E021E030E0CE010995B70178
:10146000CE01DF91CF911F910F91FF90EF900C94DF
:10147000AB05DF91CF911F910F91FF90EF900895F1
:10148000CF93DF93EC010E948B068FA987FD06C0E6
:10149000EB8DFC8D80819AA989238083DF91CF9188
:1014A00008950895AF92BF92CF92DF92EF92FF928C
:1014B0000F931F93CF93DF93BC016F5F7F4FFC01AE
:1014C0001491115008F47AC0FB01D4917B01F2E031
:1014D000EF0EF11CFB0131960491C02FCF778CE900
:1014E00092E00E948B068091D30287FD09C0E091B3
:1014F000B702F091B80280819091CE028923808357
:10150000E091B902F091BA0280819091D0028923D2
:1015100080836D2F8CE992E00E94EC05E091B90286
:10152000F091BA0280819091CF02892B8083F701DC
:10153000B12CA12CD0E0AC16BD06F4F48091D10200
:101540006F01823081F48091CC02882361F0619137
:1015500071916F018CE992E00E94AB05EFEFAE1A3A
:10156000BE0AF601E8CF8FEFC81AD80A64918CE959
:1015700092E00E94EC05F2CF8091D30287FD09C072
:10158000E091B702F091B80280819091CD02892B51
:101590008083B7016C0F7D1F07FF93CFEB0121966E
:1015A000FB01649170E06F3F710511F464EF71E02D
:1015B00090E080E00E945504BE0183CFDF91CF917F
:1015C0001F910F91FF90EF90DF90CF90BF90AF9061
:1015D00008950F931F93CF93DF93EC018B010E942B
:1015E0008B068FA987FD06C0EB8DFC8D80819AA9A3
:1015F00089238083ED8DFE8D80819CA98923808342
:1016000066E3CE010E94EC05ED8DFE8D80819BA9E5
:10161000892B80838DA9F801823091F06081CE0101
:101620000E94EC058FA987FD06C0EB8DFC8D8081A3
:1016300099A9892B8083DF91CF911F910F910895F4
:1016400088A9882359F360817181CE010E94AB057E
:10165000E9CFCF93DF931F92CDB7DEB7FC0119829C
:101660006370668BDC01AD5BBF4F2C9130E011964F
:101670008C9190E0623031F06330C9F0613081F0DC
:1016800040EC498332AF21AF94AF83AFBE016F5FAF
:101690007F4FCF010E94E90A0F90DF91CF9108950B
:1016A00040EA498334AF23AF92AF81AFEFCF40E63A
:1016B000F8CFCF93DF931F92CDB7DEB7FC0119822D
:1016C0006370668BDC01AA5BBF4F8C91982F9B7F68
:1016D000AF014C5B5F4F913031F493E0623008F022
:1016E00091E0DA019C939F012D5B3F4F623009F43A
:1016F0004CC0633009F459C0613069F1823021F087
:1017000098EC843009F046C090EC99838130D1F494
:1017100080E890E09387828791878087D9018C91B8
:1017200090E092AF81AFDA018C9190E094AF83AFFB
:10173000BE016F5F7F4FCF010E94E90A0F90DF91DA
:10174000CF910895843051F580EA90E093878287A5
:1017500080E590E0E1CF823019F098EA843061F5BD
:1017600090EA9983813091F580E890E091878087B5
:1017700093878287D9018C9190E094AF83AFDA018F
:101780008C9190E092AF81AFD3CF823039F084302A
:10179000D9F298E09983813009F4BACF80EA90E0D9
:1017A0009387828780E890E0B7CF823019F098E67F
:1017B000843011F490E6D5CF99838130A9F280EA84
:1017C00090E09187808780E890E0D2CF8430B9F7AD
:1017D00080EA90E09187808780E590E0C9CFFC01A6
:1017E00087A987FD06C0A38DB48D9C9181A9892B03
:1017F0008C9308950895FC016370668B84819581B4
:1018000026813781613039F0633029F091878087F4
:1018100033872287089531872087938782870895A9
:101820002F923F924F925F926F927F928F929F92F0
:10183000AF92BF92CF92DF92EF92FF920F931F93DE
:10184000CF93DF93CDB7DEB76A970FB6F894DEBFBC
:101850000FBECDBF9A8F898F7A8369834A01D22EBA
:1018600018870F833701BC2CDC0159962D913C91D0
:101870005A972115310509F015C118968D919C9143
:101880001997681779070CF0D7C11A968D919C911A
:10189000481759070CF0D0C14C2C512CB6E0CB9E08
:1018A000600D711D11247C876B87161617060CF0CE
:1018B000C3C1EA2DF0E0FA87E98793E0EE0FFF1F3E
:1018C0009A95E1F7F88BEF87CF01840F951F1816D3
:1018D00019060CF0B1C1A98DBA8D58968C91811161
:1018E00004C0BFEABD1508F4D394A98DBA8DED915B
:1018F000FC9111970284F385E02DCD010995B5E0A7
:10190000DB9EC0011124E981FA81FC83EB83312C39
:10191000212C9C0128593F4F388F2F8B4A2D50E0A6
:101920005E8B4D8BEF89F88DE20DF31D44919E8205
:101930008D82D12CC12C69817A81620D731D7A8BC5
:10194000698B842F90E09C8B8B8BE98DFA8DA08125
:10195000B18140FF82C0F1E0BF126FC0AF126DC015
:101960001C96ED91FC912F813885A4014C0D5D1DD5
:1019700069897A89898D9A8D0995EB89FC89F59514
:10198000E7954E2F5FEFC51AD50A6D817E818D894F
:101990009E89680F791F7E836D8398E0C916D104F4
:1019A00081F6AFEF2A1A3A0AEB81FC81E40DF51DAE
:1019B000FC83EB83F5E02F16310409F0B3CF2F81C0
:1019C000388526153705B9F0A98DBA8DED91FC91B2
:1019D000B1E0BB1257C0AB1255C069817A816B5F11
:1019E0007F4F0088F189E02D830128E030E0A401D9
:1019F000898D9A8D0995A98DBA8DED91FC911197DC
:101A00000688F789E02DCD016A960FB6F894DEBFFF
:101A10000FBECDBFDF91CF911F910F91FF90EF903F
:101A2000DF90CF90BF90AF909F908F907F906F90FE
:101A30005F904F903F902F9009941E96ED91FC91EE
:101A4000EF80F88409851A8592014D815E816B8152
:101A50007C81898D9A8D099590CF2F8138852615A7
:101A6000370509F48ACF31E0B31207C0A31205C0CD
:101A70001C96ED91FC91930178CF1E96ED91FC910F
:101A80007301E0CF6B857C85641975090684F78541
:101A9000E02D73010F8518899201A401898D9A8D1B
:101AA0000995A9CFF90134969491329745915491B3
:101AB000D91AB7E0DB9E400D511D1124F901259183
:101AC00034913C8B2B8BFA0125903490FA0132969D
:101AD000749031963491398B32966490319644905B
:101AE00041E04C1518F04A1508F07FC0662D062C11
:101AF000000C770B7C836B83842D042C000C990BDA
:101B00009E838D83A98DBA8DED91FC9111970284EE
:101B1000F385E02DCD010995512CD12CC12CEA2D56
:101B2000F0E0FA87E9872B2D30E03C872B87A40172
:101B3000440D511D47FC5A95588F4F8B69817A810E
:101B4000660D711D67FC7A957E876D877989C7164A
:101B500008F051CF2C2D30E04D815E81420F531F94
:101B6000A985BA854A9FC0014B9F900D5A9F900D41
:101B70001124FC01E80DF91DF88BEF87852D612CF0
:101B80004F89588D420F531F5E8B4D8B671408F0A1
:101B900050C044244394480E877041F4C10101961B
:101BA000EB89FC89E20DF31DD4901C01D7FE19C00E
:101BB000A98DBA8DED91FC91662D70E0B1E0BB125C
:101BC00019C0AB1217C02D853E85620F731F0484A8
:101BD000F585E02D2F8138854D895E89898D9A8D17
:101BE0000995DD0C6394842DD1CF1E821D821C8249
:101BF0001B8288CF4B815C81640F751FAB85BC85D0
:101C00006A9FC0016B9F900D7A9F900D112469818E
:101C10007A81680F791F0684F785E02DEF80F884BC
:101C200009851A859D014F855889898D9A8D099559
:101C3000D8CF570CC3948ACF6A960FB6F894DEBFFC
:101C40000FBECDBFDF91CF911F910F91FF90EF900D
:101C5000DF90CF90BF90AF909F908F907F906F90CC
:101C60005F904F903F902F9008958F929F92AF92E8
:101C7000CF92EF92FF920F931F93CF93DF93EC01DC
:101C8000262F898D9A8D009709F051C06A30D1F4C2
:101C90001D861C868D8948E0849F900111248E85C5
:101CA0009F85820F931F9F878E8781E090E0DF9151
:101CB000CF911F910F91FF90EF90CF90AF909F9099
:101CC0008F9008956D3089F3CC88AD888F898823F3
:101CD000C1F08C859D8536E0C39E800D911D112439
:101CE000488559854817590764F44E855F851D86D8
:101CF0001C8638E0A39EC0011124840F951F9F8786
:101D00008E87EA88FB88088919894E855F856C85EE
:101D10007D85CE010E94100C2C898C859D8546E026
:101D2000249F800D911D11249D878C87BECF6A3022
:101D300069F41D861C86FC013896E4912D898E85F8
:101D40009F85E29F800D911D1124ADCF6D3009F468
:101D5000ACCFFC0134963491631708F4A6CF3296C9
:101D6000E491E61708F4A1CFFC0132968590949097
:101D7000462F431B342F47E0349F800C911C1124C5
:101D8000F401329634913196E4913323A9F1EE2394
:101D900099F1CC88F4013596E491AD884F894423BC
:101DA00001F10E2E000CFF0BE30FF11DCE9EA001E2
:101DB000CF9E500D11246C857D85460F571F688579
:101DC0007985641775076CF44E855F851D861C86C2
:101DD000FC013896E491AE9E400D511D11245F87A1
:101DE0004E87EA88FB88088919894E855F856C854E
:101DF0007D85CE010E94100CF4013496E4912C896B
:101E00008C859D85E29F800D911D11248DCF6F9251
:101E10007F928F929F92AF92BF92CF92DF92EF927A
:101E2000FF920F931F93CF93DF93EC016B015A0145
:101E300039014801E881F9810284F385E02D099593
:101E4000E881F9810288F389E02D87019301A501DA
:101E5000B601CE010995A501480D591D4150510902
:101E6000E881F9810288F389E02D9301B601CE0162
:101E70000995E881F9810088F189E02D9401A50197
:101E8000B601CE010995C60CD71CB6016150710987
:101E9000E881F9810088F189E02D9401A501CE0146
:101EA0000995E881F9810688F789E02DCE01DF9157
:101EB000CF911F910F91FF90EF90DF90CF90BF9047
:101EC000AF909F908F907F906F9009946F927F92C8
:101ED0008F929F92AF92BF92CF92DF92EF92FF923A
:101EE0000F931F93CF93DF935C01EB016A014901CC
:101EF00038018701DC01ED91FC916217730719F538
:101F0000641675062CF0962D872D3A01C92ED82E11
:101F10009601261937092F5F3F4F048CF58DE02D70
:101F2000A301BE01C5010995DF91CF911F910F91CA
:101F3000FF90EF90DF90CF90BF90AF909F908F90E9
:101F40007F906F9008954615570591F4261737072F
:101F500024F0892D4B01C22FD82F9E012819390951
:101F60002F5F3F4F068CF78DE02DA601B401DACF2D
:101F70000284F385E02D0995D501ED91FC9104884B
:101F8000F589E02D83019401A601BE01C5010995E3
:101F9000D501ED91FC910688F789E02DC501DF910F
:101FA000CF911F910F91FF90EF90DF90CF90BF9056
:101FB000AF909F908F907F906F900994EF92FF92D7
:101FC0000F931F93DC011A960D911C911B97189685
:101FD0002D913C911997ED91FC9100A0F1A1E02D7C
:101FE0007B0150E040E070E060E009951F910F91A7
:101FF000FF90EF9008954F925F926F927F928F9231
:102000009F92AF92BF92CF92DF92EF92FF920F9387
:102010001F93CF93DF936C012B015A0139014801C3
:10202000DC01ED91FC910284F385E02D0995E2013C
:10203000640C751CD601ED91FC91C615D7055CF4B6
:102040000088F189E02D87019401A501BE01C60138
:1020500009952196EFCF0688F789E02DC601DF911B
:10206000CF911F910F91FF90EF90DF90CF90BF9095
:10207000AF909F908F907F906F905F904F9009945A
:102080008F929F92AF92BF92CF92DF92EF92FF9288
:102090000F931F93CF93DF93EC015B014A0169011A
:1020A000E881F9810284F385E02D099595012C0DD5
:1020B0003D1D21503109E881F9810488F589E02D21
:1020C00078018401A401B501CE010995E881F98167
:1020D0000688F789E02DCE01DF91CF911F910F91F6
:1020E000FF90EF90DF90CF90BF90AF909F908F9038
:1020F00009948F929F92AF92BF92CF92DF92EF920C
:10210000FF920F931F93CF93DF93EC015B014A0182
:1021100069017801E881F9810284F385E02D099550
:10212000C80CD91C860101501109E881F981048885
:10213000F589E02D9501A401B501CE010995E8814D
:10214000F9810688F789E02DCE01DF91CF911F91AB
:102150000F91FF90EF90DF90CF90BF90AF909F9046
:102160008F900994EF92FF920F931F93DC01ED91F2
:10217000FC9100A0F1A1E02D09951F910F91FF9016
:10218000EF9008950F931F93DC01ED91FC91068C65
:10219000F78DE02D09951F910F9108950F931F93CF
:1021A000DC01ED91FC91048CF58DE02D09951F91DA
:1021B0000F910895DC01ED91FC910084F185E02DF3
:1021C00009942F923F924F925F926F927F928F92DB
:1021D0009F92AF92BF92CF92DF92EF92FF920F93B6
:1021E0001F93CF93DF9300D000D000D0CDB7DEB7E0
:1021F0003C016A013E832D83FC82EB825801A41AC4
:10220000B50AB7FE03C0B194A194B1088D809E8039
:10221000861A970A97FE03C09194819491088A14B4
:102220009B045CF0902F812F0D811E819D838E83F6
:102230009C2D8D2D6B01692F782F0C151D055CF0E1
:102240009D818E817E836D83692F782F902F812FC2
:102250008601C92ED82E1601201A310A2B012D8194
:102260003E81421A530A57FE03C0519441945108CB
:10227000710137FE03C03FEFE31AF30AF594E794C8
:102280008D819E81861797075CF5A1E0B0E0BA8347
:10229000A983C016D1064CF1D301ED91FC910484C1
:1022A000F585E02D2B813C81A8016D817E818A140A
:1022B0009B041CF04D815E81B801C3010995E418AF
:1022C000F508F7FE0AC02D813E8189819A81280F89
:1022D000391F3E832D83E20CF31C0F5F1F4FD9CFB4
:1022E0002FEF3FEF3A832983D4CF26960FB6F89489
:1022F000DEBF0FBECDBFDF91CF911F910F91FF9039
:10230000EF90DF90CF90BF90AF909F908F907F9095
:102310006F905F904F903F902F900895089590E0B8
:1023200080E008951F93CF93DF93182FC8E0D0E08B
:10233000612F617086E00E94C60361E088E00E9420
:10234000C60360E088E00E94C6031695219781F7D6
:10235000DF91CF911F910895CF92DF92EF92FF927C
:10236000CF93DF9320E030E040E85FE40E94A01BC1
:1023700028E23BE64EEE5CE40E94111D0E94831DA4
:102380006B017C01C4E0D0E08C2D0E949211CD2C19
:10239000DE2CEF2CFF24E7FCFA942197A9F780E0CC
:1023A0000E94921161E087E00E94C60360E087E02E
:1023B000DF91CF91FF90EF90DF90CF900C94C60308
:1023C000FC0101900020E9F73197AF01481B590B40
:1023D000BC018CE992E00C9447038F929F92AF92DC
:1023E000BF920F931F93CF93DF93CDB7DEB7A19723
:1023F0000FB6F894DEBF0FBECDBF19A2423008F46D
:102400004AE08E010F5D1F4F842E912CB12CA12C20
:10241000A50194010E94C31DE62FB901CA01EA304B
:10242000F4F4E05DD801EE938D01232B242B252BB2
:1024300079F790E080E0109719F0CD010E94E0114B
:10244000A1960FB6F894DEBF0FBECDBFDF91CF913E
:102450001F910F91BF90AF909F908F900895E95C6E
:10246000E1CFCF92DF92EF92FF92CF93DF936C0197
:10247000092E000CEE08FF0897FF19C06DE28CE9E9
:1024800092E00E94350EEC0166277727CB016C198C
:102490007D098E099F094AE00E94ED118C0F9D1F56
:1024A000DF91CF91FF90EF90DF90CF9008954AE0B9
:1024B000C701B601DF91CF91FF90EF90DF90CF90F1
:1024C0000C94ED110C94E0110F931F93CF93DF93B5
:1024D0008C01EB0180918A0290918B02009739F078
:1024E00020918C0230918D0226173707B8F4BE0177
:1024F0006F5F7F4F0E943E1F0097E1F090938B0229
:1025000080938A02D0938D02C0938C0220918E0218
:1025100030918F02232B11F4FC011082D0938F0293
:10252000C0938E02B80180918A0290918B020E9422
:10253000092014C080918A0290918B02009711F0BB
:102540000E94B51E10928B0210928A0210928F0286
:1025500010928E0210928D0210928C028AE892E004
:10256000DF91CF911F910F9108958F929F92AF921B
:10257000BF92CF92DF92EF92FF920F931F93CF9370
:1025800080919002909191028B309105E0F4FC01D2
:10259000E453FD4E0C94041ED712B213B713BC13B0
:1025A000C113C613CB13D013D513DA13DF1341E0D5
:1025B00050E060E070E040930A0250930B02609399
:1025C0000C0270930D02880F991FFC01EA5AFE4F0E
:1025D00080819181009709F4F7C0FC0101900020EF
:1025E000E9F73197BF01681B790B0E946412F12C47
:1025F000E12C04E110E020EA30E04FE050E070E030
:1026000060E08CE992E00E94AC0780EE9FEF90932F
:10261000AF028093AE029093AD028093AC028AE049
:1026200090E09093A9028093A80284E190E09093B7
:10263000AB028093AA0281E08093B0028093B10242
:102640008CE691E00E946212C2E0C093B002C09397
:10265000B1028CE390E09093A9028093A8028FE0EE
:1026600090E09093AB028093AA0240918E02509129
:102670008F0260918A0270918B028CE992E00E9435
:1026800047030CE310E020EA30E048E250E070E05D
:1026900060E08CE992E00E94AC0780EE97E09093B6
:1026A000AF028093AE029093AD028093AC02C093D0
:1026B000B002C093B102C0900001D0900101E0903F
:1026C0000201F090030188EEC81683E0D806E10409
:1026D000F10408F08EC08EE490E09093A9028093FC
:1026E000A80282E390E09093AB028093AA0281E774
:1026F00091E00E9462128091000190910101A091ED
:102700000201B091030184369105A105B10520F4C1
:1027100081E791E00E9462126091000170910101D5
:1027200080910201909103014AE00E94ED118AE339
:1027300090E09093A9028093A8028BE490E090939C
:10274000AB028093AA028FEC91E0CF911F910F9181
:10275000FF90EF90DF90CF90BF90AF909F908F90C1
:102760000C9462124AE050E060E070E024CF42E353
:1027700050E060E070E01FCF44E650E060E070E0C1
:102780001ACF44EF51E060E070E015CF48EE53E01F
:1027900060E070E010CF44EC59E060E070E00BCFF7
:1027A00048E853E160E070E006CF40E157E260E0C6
:1027B00070E001CF40EA56E861E070E0FCCE40E214
:1027C00051EA67E070E0F7CE80918A0290918B0227
:1027D000009711F00E94B51E10928B0210928A028F
:1027E00010928F0210928E0210928D0210928C0223
:1027F000FECE80E4C81682E4D8068FE0E806F10435
:1028000008F0B7C088E290E09093A9028093A802F4
:1028100082E390E09093AB028093AA0280E1C81615
:1028200087E2D806E104F10420F481E791E00E94F8
:1028300062126091000170910101809102019091FA
:1028400003010E943F1B20E030E04AE754E40E946D
:10285000111D6B017C01AC019B010E94BE1D8823F0
:1028600099F083E791E00E94E0118AE390E0909371
:10287000A9028093A8028BE490E09093AB0280932E
:10288000AA028DEF91E061CF2FEF3FEF4FE75FE7B7
:10289000C701B6010E94BE1D81110DC02FEF3FEF91
:1028A0004FE75FE7C701B6010E943A1B18161CF4F8
:1028B00087E791E0D8CF2FEF3FEF4FE75FE4C70105
:1028C000B6010E94B91D18161CF48BE791E0CBCF1E
:1028D0002FEF3FEF4FE75FECC701B6010E943A1BB5
:1028E00087FDF3CF2EE632E143E05AE3C701B6019C
:1028F0000E94A51C6B017C010E948A1D4B015C019A
:102900000E943F1B9B01AC01C701B6010E94A41CA1
:102910006B017C014AE0C501B4010E94ED116EE239
:102920008CE992E00E94350EC4E0C15009F49DCFBD
:1029300020E030E040E251E4C701B6010E94A01B54
:102940004B015C010E948A1D6B01F12CE12C4AE0D5
:10295000C701B6010E94ED11C701B6010E943F1BDD
:102960009B01AC01C501B4010E94A41C6B017C0158
:10297000DCCF89E190E09093A9028093A80282E3E2
:1029800090E09093AB028093AA02C701B60120E4C5
:1029900032E44FE050E00E94E51DC9010E9431126F
:1029A0008FE791E00E946212C701B60120EA36E883
:1029B00041E050E00E94E51D8AE0882E912CA12C78
:1029C000B12CCA01B901A50194010E94E51DCB01FA
:1029D0000E943112C701B60120E137E240E050E029
:1029E0000E94E51DCA01B901A50194010E94E51DDF
:1029F000CB010E943112C701B60128EE33E040E05E
:102A000050E00E94E51DCA01B901A50194010E9490
:102A1000E51DCB010E94311281E891E00E94621213
:102A2000C701B60124E630E040E050E00E94E51D19
:102A3000CA01B901A50194010E94E51DCB010E94C4
:102A40003112C701B601A50194010E94E51D6B0179
:102A5000CA01B901A50194010E94E51DCB010E94A4
:102A60003112C6010E9431128AE390E09093A902CC
:102A70008093A8028BE490E09093AB028093AA022B
:102A800083E891E062CE0E94FB1F1F93CF93DF93F8
:102A900085ED8093BC008091120290911302A09169
:102AA0001402B09115020796A11DB11D23E0B69541
:102AB000A795979587952A95D1F72091BC0024FD7D
:102AC00003C010925A0252C0409112025091130258
:102AD0006091140270911502452B462B472B69F328
:102AE0000097A105B10541F025E32A95F1F7000013
:102AF0000197A109B109E1CF80911102C1E0C09312
:102B00001002882399F1D091B8001091BA008091F9
:102B1000BC008A7B8093BC0060E082E10E94C60317
:102B200060E083E10E94C60310925A02C0935C02E7
:102B300010925B0261E082E10E94C60361E083E1E2
:102B40000E94C6038091B9008E7F8093B900809166
:102B5000B9008D7F8093B90088E48093B80085E444
:102B60008093BC001093BA00D093B800DF91CF914E
:102B70001F910895CF92DF92EF92FF920F931F93D0
:102B8000CF93DF93EC016A017B01C114D104E1040E
:102B9000F10439F4C12C48E4D42E48EEE42EFF248D
:102BA000F394FE01FF96C082D182E282F38281E239
:102BB0008DAF80E28EAF369610818FA987FD07C05A
:102BC00061E00E94F40361E08FA90E94C60361E006
:102BD00088AD0E94F40361E088AD0E94C6038DA910
:102BE000811182C040E052E16AE770E0C416D50668
:102BF000E606F70640F476956795579547958F5FFB
:102C00008630A1F787E0212F2C702065982F9695AC
:102C1000922B99A3809581708AA3812F90E0B0E0D8
:102C2000A0E08BA39CA3ADA3BEA31FB7F894809193
:102C30000E02811127C0EBE2F6E08491EDE0F6E0B0
:102C40009491E82FF0E0EE0FFF1FE859FA4FA5919D
:102C5000B491EC91E92321F461E08AE00E94C6037B
:102C600061E08AE00E94F4038CB580618CBD8CB574
:102C700080648CBD61E08DE00E94F40361E08BE034
:102C80000E94F40380910E028F5F80930E021FBF9B
:102C90008EA987FD75C061E00E94F40361E08EA9F2
:102CA0000E94C60364E670E080E090E00E94550454
:102CB00060E08EA90E94C60364E670E080E090E0C8
:102CC0000E94550461E08EA90E94C60368EC70E082
:102CD00080E090E0DF91CF911F910F91FF90EF90F6
:102CE000DF90CF900C94550401E216E0F12C813076
:102CF000B9F461E08AA50E94F40360E08AA50E940D
:102D0000C60361E08CA50E94F40360E08CA50E94DC
:102D1000C6038BA587FDBCCF60E00E94F403B8CF4B
:102D2000F8018491E82FF0E0EE0FFF1FE95EF94F04
:102D3000859194912F8D38A12817390741F461E0CE
:102D40008F2D0E94F40360E08F2D0E94C603F39440
:102D50000F5F1F4FF4E1FF12E3CF61E08EA50E94E9
:102D6000F40361E08EA50E94C6038FA587FD90CF76
:102D700061E00E94F40361E08FA50E94C60388CF42
:102D8000DF91CF911F910F91FF90EF90DF90CF9047
:102D900008951F920F920FB60F9211242F933F9315
:102DA0008F939F93AF93BF93809181029091820202
:102DB000A0918302B09184023091800223E0230F1E
:102DC0002D3758F50196A11DB11D209380028093E7
:102DD000810290938202A0938302B0938402809137
:102DE000850290918602A0918702B0918802019697
:102DF000A11DB11D8093850290938602A093870246
:102E0000B0938802BF91AF919F918F913F912F9185
:102E10000F900FBE0F901F90189526E8230F029673
:102E2000A11DB11DD2CF1F920F920FB60F92112488
:102E30002F933F934F935F936F937F938F939F93C2
:102E4000AF93BF93EF93FF938091B900887F803653
:102E500009F44AC0F0F5883209F4A5C018F58031AC
:102E600009F499C0B8F4882309F4F5C0883009F44E
:102E700092C0FF91EF91BF91AF919F918F917F9100
:102E80006F915F914F913F912F910F900FBE0F90D7
:102E90001F901895883109F486C0803251F78093CD
:102EA000590214C0803409F49BC040F48033B9F354
:102EB0008833F9F68093590285ECAEC0803509F469
:102EC00083C0883509F494C0883499F60E9445156A
:102ED000D0CF883909F48AC038F5883729F050F402
:102EE000883611F0803729F683E080935A021092D9
:102EF000580255C0883809F479C0803919F08038F3
:102F000009F0B7CF80915802803208F06FC0E0918D
:102F1000580281E08E0F809358028091BB00F0E050
:102F2000E85CFD4F80833BC0803B39F0D0F4803AB1
:102F300009F477C0883A09F09CCF84E080935A0264
:102F40001092370210923602F0E0E0E0099580918D
:102F5000360281110FC081E0809336021092160272
:102F600009C0803C09F4A8CF883C09F4A5CF883B70
:102F700009F07FCFE091370281E08E0F8093370216
:102F8000F0E0EA5EFD4F80818093BB0090913702B4
:102F90008091360229C080917F028093BB0085EC2E
:102FA0008093BC0066CF90917E0280917D0298173D
:102FB00058F5E0917E0281E08E0F80937E02F0E072
:102FC000E35AFD4F8081E9CFE0917E0281E08E0FD0
:102FD00080937E028091BB00F0E0E35AFD4F808336
:102FE00090917E0280917D029817C8F285E8D8CF33
:102FF000E0917E0281E08E0F80937E028091BB0083
:10300000F0E0E35AFD4F808380915C0281115ECF36
:1030100081E080935B0284EA8093BC0010925A02A4
:1030200028CF85EC8093BC0010925A028091580200
:10303000803230F4E0915802F0E0E85CFD4F1082FD
:103040006091580270E088E392E0F0E0E0E00995DA
:10305000109258020ECF1092590238CF1F920F9241
:103060000FB60F9211242F933F934F935F936F935B
:103070007F938F939F93AF93BF93EF93FF9386E9D3
:1030800092E00E94D904282F882309F460C080911F
:10309000000190910101A0910201B09103014091C2
:1030A0000A0250910B0260910C0270910D022031C6
:1030B000A1F4840F951FA61FB71F813826E9920738
:1030C00028E9A207B10590F48093000190930101D3
:1030D000A0930201B093030109C0841B950BA60BBA
:1030E000B70B8A309105A105B10570F780910001F9
:1030F00090910101A0910201B09103010B97A105EC
:10310000B10560F48AE090E0A0E0B0E080930001B7
:1031100090930101A0930201B093030180910001FB
:1031200090910101A0910201B0910301803896496C
:10313000A849B10560F080E896E9A8E9B0E080937D
:10314000000190930101A0930201B0930301FF914C
:10315000EF91BF91AF919F918F917F916F915F910F
:103160004F913F912F910F900FBE0F901F90189588
:1031700010929F0210929E0220E830E03093A1024C
:103180002093A00280EA90E09093A3028093A20291
:103190003093A5022093A4029093A7028093A602E5
:1031A0001092B2021092A9021092A8021092AB02E1
:1031B0001092AA0281E08093B1028093B0022FEFB7
:1031C0003FEF3093AF022093AE023093AD022093D5
:1031D000AC028093B3021092B4021092B602109225
:1031E000B5021092D1028FE08093D2028AE08093E0
:1031F000D3028EE08093D4021092D6021092D502B0
:103200001092D8021092D7021092D9021092DA02CC
:103210001092DB021092DC021092DD021092DE02AC
:1032200089E892E09093BC028093BB02EFE2F6E063
:10323000E491F0E0EE0FFF1FE95EF94F8591949164
:103240009093BA028093B902E1E1F6E08491809311
:10325000CF02EBE2F6E0E491F0E0EE0FFF1FE95E53
:10326000F94F259134913093B8022093B702EDE0E5
:10327000F6E0E491E093CD02E095E093CE02E82FF2
:10328000E095E093D0021092DF021092E0021092DB
:10329000E1028AE291E090939D0280939C0281E199
:1032A00080939A0280E180939B021092990282E0BF
:1032B0008093970283E08093980210929602809107
:1032C000000190910101A0910201B091030180934E
:1032D000920290939302A0939402B0939502E0918E
:1032E0009002F0919102EE0FFF1FEA5AFE4F80818B
:1032F000918110928B0210928A0210928D0210928C
:103300008C0210928F0210928E02009751F0FC01F5
:1033100001900020E9F73197BF01681B790B0C94ED
:1033200064120895CF93DF931F92CDB7DEB77894E0
:1033300084B5826084BD84B5816084BD85B58260BA
:1033400085BD85B5816085BD80916E00816080936B
:103350006E001092810080918100826080938100D4
:1033600080918100816080938100809180008160E4
:10337000809380008091B10084608093B10080913F
:10338000B00081608093B00080917A008460809367
:103390007A0080917A00826080937A0080917A002E
:1033A000816080937A0080917A00806880937A00AF
:1033B0001092C10062E081E10E94F40362E080E1CA
:1033C0000E94F40362E082E00E94F40362E083E082
:1033D0000E94F40362E082E10E94F40362E084E070
:1033E0000E94F40361E087E00E94F40361E088E05A
:1033F0000E94F40361E086E00E94F40361E085E04E
:103400000E94F40361E08FE00E94F40361E08EE02B
:103410000E94F40361E089E00E94F40361E089E026
:103420000E94F40361E089E00E94C6038091680075
:1034300084608093680080916D008C6080936D0043
:10344000789440E050E0BA018CE992E00E94BA150D
:1034500088EC95E00E94520A8BEB95E00E94520A9C
:1034600080E995E00E94520A80EC8983BE016F5F7B
:103470007F4F8CE992E00E94E90A82E08093E202A9
:1034800060E08CE992E00E94590B63E08CE992E0E5
:103490000E94590B1092B30270E060E08CE992E058
:1034A0000E94DE0F4091A6025091A7028FE090E0AB
:1034B0009093A9028093A802CA0144979093AB020B
:1034C0008093AA0281E08093B0028093B1022091A0
:1034D000A4023091A5022A503109475151090FE148
:1034E00010E070E060E08CE992E00E94B3088FE1A8
:1034F00090E09093AF028093AE029093AD028093E0
:10350000AC0288E891E00E94E0118EE991E00E940F
:10351000E01181EA91E00E94621261E085E00E9480
:10352000C60360E085E00E94C60361E088E00E9477
:10353000C60360E088E00E94C60361E087E00E9465
:10354000C60360E087E00E94C6030E94B51200E057
:1035500010E088EEC82E83E0D82EE12CF12C89E90A
:1035600092E00E94D904882389F0803109F06CC070
:1035700080919002909191028A3091052CF40196ED
:1035800090939102809390020E94B51282E10E9472
:103590009D03892B61F410929102109290020E9477
:1035A000B51262E370E080E090E00E94550484E090
:1035B0000E949D03892BB1F4C0920001D0920101B9
:1035C000E0920201F092030160E070E08AE794E487
:1035D0000E94AC110E94B5126EE571E080E090E0AF
:1035E0000E945504609100017091010180910201D7
:1035F000909103018090920290909302A090940287
:10360000B090950286169706A806B906B1F00E94FA
:103610003F1B0E94AC110E94B51280910001909155
:103620000101A0910201B091030180939202909355
:103630009302A0939402B09395020115110509F429
:103640008ECF0E9400008BCF803209F09DCF8091F9
:10365000900290919102181619060CF095CF0197DF
:103660008FCF80918A0290918B02009711F00C9479
:10367000B51E08950E947C1B08F481E00895E8942B
:1036800009C097FB3EF490958095709561957F4FAA
:103690008F4F9F4F9923A9F0F92F96E9BB27939558
:1036A000F695879577956795B795F111F8CFFAF468
:1036B000BB0F11F460FF1BC06F5F7F4F8F4F9F4F99
:1036C00016C0882311F096E911C0772321F09EE8F7
:1036D000872F762F05C0662371F096E8862F70E05D
:1036E00060E02AF09A95660F771F881FDAF7880F37
:1036F0009695879597F90895990F0008550FAA0B8D
:10370000E0E8FEEF16161706E807F907C0F01216F4
:103710001306E407F50798F0621B730B840B950BF7
:1037200039F40A2661F0232B242B252B21F408954C
:103730000A2609F4A140A6958FEF811D811D0895E9
:103740000E94B31B0C94241C0E94161C38F00E948B
:103750001D1C20F0952311F00C940D1C0C94131CCF
:1037600011240C94581C0E94351C70F3959FC1F3D2
:10377000950F50E0551F629FF001729FBB27F00D1F
:10378000B11D639FAA27F00DB11DAA1F649F662774
:10379000B00DA11D661F829F2227B00DA11D621FC3
:1037A000739FB00DA11D621F839FA00D611D221F7D
:1037B000749F3327A00D611D231F849F600D211D61
:1037C000822F762F6A2F11249F5750409AF0F1F0E4
:1037D00088234AF0EE0FFF1FBB1F661F771F881F4D
:1037E00091505040A9F79E3F510580F00C940D1C5C
:1037F0000C94581C5F3FE4F3983ED4F3869577957C
:103800006795B795F795E7959F5FC1F7FE2B880FF2
:10381000911D9695879597F9089597F99F6780E888
:1038200070E060E008959FEF80EC089500240A9412
:103830001616170618060906089500240A9412168B
:103840001306140605060895092E0394000C11F4BE
:10385000882352F0BB0F40F4BF2B11F460FF04C06B
:103860006F5F7F4F8F4F9F4F089557FD9058440FC4
:10387000551F59F05F3F71F04795880F97FB991FCF
:1038800061F09F3F79F0879508951216130614068C
:10389000551FF2CF4695F1DF08C016161706180619
:1038A000991FF1CF86957105610508940895E894F4
:1038B000BB2766277727CB0197F908952F923F9270
:1038C0004F925F926F927F928F929F92AF92BF9230
:1038D000CF92DF92EF92FF920F931F93CF93DF93DC
:1038E000CDB7DEB7CA1BDB0B0FB6F894DEBF0FBE39
:1038F000CDBF09942A88398848885F846E847D8486
:103900008C849B84AA84B984C884DF80EE80FD8087
:103910000C811B81AA81B981CE0FD11D0FB6F894FD
:10392000DEBF0FBECDBFED010895A29FB001B39FD2
:10393000C001A39F700D811D1124911DB29F700DB8
:10394000811D1124911D08955058BB27AA270E945C
:10395000BC1C0C94241C0E94161C38F00E941D1CD8
:1039600020F039F49F3F19F426F40C94131C0EF444
:10397000E095E7FB0C940D1CE92F0E94351C58F3D1
:10398000BA17620773078407950720F079F4A6F544
:103990000C94571C0EF4E0950B2EBA2FA02D0B01A2
:1039A000B90190010C01CA01A0011124FF27591B84
:1039B00099F0593F50F4503E68F11A16F040A22F8A
:1039C000232F342F4427585FF3CF469537952795FB
:1039D000A795F0405395C9F77EF41F16BA0B620BFA
:1039E000730B840BBAF09150A1F0FF0FBB1F661F41
:1039F000771F881FC2F70EC0BA0F621F731F841F84
:103A000048F4879577956795B795F7959E3F08F0A9
:103A1000B0CF9395880F08F09927EE0F979587956B
:103A200008950E94251D0C94241C0E941D1C58F012
:103A30000E94161C40F029F45F3F29F00C940D1CE5
:103A400051110C94581C0C94131C0E94351C68F3E3
:103A50009923B1F3552391F3951B550BBB27AA2747
:103A600062177307840738F09F5F5F4F220F331F81
:103A7000441FAA1FA9F335D00E2E3AF0E0E832D049
:103A800091505040E695001CCAF72BD0FE2F29D04C
:103A9000660F771F881FBB1F261737074807AB071E
:103AA000B0E809F0BB0B802DBF01FF2793585F4F93
:103AB0003AF09E3F510578F00C940D1C0C94581C64
:103AC0005F3FE4F3983ED4F3869577956795B79575
:103AD000F7959F5FC9F7880F911D9695879597F980
:103AE0000895E1E0660F771F881FBB1F62177307F9
:103AF0008407BA0720F0621B730B840BBA0BEE1F0E
:103B000088F7E09508950E948A1D6894B1110C947D
:103B1000581C08950E943D1C88F09F5798F0B92FBB
:103B20009927B751B0F0E1F0660F771F881F991FF2
:103B30001AF0BA95C9F714C0B13091F00E94571C21
:103B4000B1E008950C94571C672F782F8827B85F31
:103B500039F0B93FCCF3869577956795B395D9F74A
:103B60003EF490958095709561957F4F8F4F9F4F54
:103B700008950E947C1B08F48FEF08950E947C1B1F
:103B8000880B990B0895A1E21A2EAA1BBB1BFD01FD
:103B90000DC0AA1FBB1FEE1FFF1FA217B307E4072C
:103BA000F50720F0A21BB30BE40BF50B661F771F84
:103BB000881F991F1A9469F7609570958095909564
:103BC0009B01AC01BD01CF010895052E97FB1EF4AA
:103BD00000940E94FC1D57FD07D00E94C31D07FCE6
:103BE00003D04EF40C94FC1D5095409530952195D2
:103BF0003F4F4F4F5F4F0895909580957095619519
:103C00007F4F8F4F9F4F0895EE0FFF1F0590F49148
:103C1000E02D09940E94951C332312F48A1B9B0B00
:103C20000C94141E0E94951CB7FF0895821B930BE1
:103C300008950F931F93CF93DF938230910510F473
:103C400082E090E0E091E502F091E60230E020E0D1
:103C5000B0E0A0E0309799F42115310509F44AC08D
:103C6000281B390B24303105D8F58A819B816115D9
:103C7000710589F1FB0193838283FE0111C04081AC
:103C800051810281138148175907E0F048175907FD
:103C900099F4109761F012960C93129713961C9357
:103CA0003296CF01DF91CF911F910F91089500932C
:103CB000E5021093E602F4CF2115310551F04217C9
:103CC000530738F0A901DB019A01BD01DF01F801BA
:103CD000C1CFEF01F9CF9093E6028093E502CDCFFB
:103CE000FE01E20FF31F8193919322503109398332
:103CF0002883D7CF2091E3023091E402232B41F4B3
:103D000020910601309107013093E4022093E302F1
:103D100020910401309105012115310541F42DB7A1
:103D20003EB74091080150910901241B350BE091E9
:103D3000E302F091E402E217F307A0F42E1B3F0B1D
:103D40002817390778F0AC014E5F5F4F241735070D
:103D500048F04E0F5F1F5093E4024093E3028193BB
:103D600091939FCFF0E0E0E09CCFCF93DF9300975B
:103D7000E9F0FC01329713821282A091E502B09122
:103D8000E602ED0130E020E01097A1F420813181BE
:103D9000820F931F2091E3023091E4022817390724
:103DA00009F061C0F093E402E093E302DF91CF9168
:103DB0000895EA01CE17DF07E8F54A815B819E018D
:103DC00041155105B1F7E901FB83EA834991599106
:103DD000C40FD51FEC17FD0761F480819181029615
:103DE000840F951FE90199838883828193819B8346
:103DF0008A83F0E0E0E012968D919C9113970097F2
:103E0000B9F52D913C911197CD010296820F931F28
:103E10002091E3023091E4022817390739F63097F0
:103E200051F51092E6021092E502B093E402A093DD
:103E3000E302BCCFD383C28340815181840F951F9D
:103E4000C817D90761F44E5F5F4F88819981480F89
:103E5000591F518340838A819B81938382832115DB
:103E6000310509F0B0CFF093E602E093E5029ECF72
:103E7000FD01DC01C0CF13821282D7CFB0E0A0E0F9
:103E8000E4E4FFE10C94601C8C01009751F4CB0139
:103E90000E94191E8C01C801CDB7DEB7E0E10C9479
:103EA0007C1CFC01E60FF71F9C0122503109E21730
:103EB000F30708F49DC0D901CD91DC911197C61785
:103EC000D70798F0C530D10530F3CE010497861797
:103ED000970708F3C61BD70B2297C193D1936D9315
:103EE0007C93CF010E94B51ED6CF5B01AC1ABD0AF0
:103EF0004C018C0E9D1EA091E502B091E602512C62
:103F0000412CF12CE12C109731F58091E302909136
:103F1000E4028815990509F05CC04616570608F0BA
:103F200058C08091040190910501009741F48DB72C
:103F30009EB74091080150910901841B950BE81729
:103F4000F90708F055C0F093E402E093E302F901A9
:103F500071836083A0CF8D919C91119712966C9084
:103F6000129713967C901397A815B90559F56C0113
:103F700042E0C40ED11CCA14DB0420F1AC014A1982
:103F80005B09DA011296159780F062827382518381
:103F90004083D9016D937C93E114F10471F0D70152
:103FA0001396FC93EE93129776CF22968C0F9D1F5B
:103FB000F90191838083F301EFCFF093E602E09360
:103FC000E50269CF4816590608F42C017D01D3019A
:103FD0009ACFCB010E94191E7C01009749F0AE01D7
:103FE000B8010E940020C8010E94B51E870153CF6E
:103FF00010E000E050CF81E090E0F8940C941020A5
:10400000FB01DC0102C001900D9241505040D8F7F5
:104010000895FB01DC0101900D920020E1F7089565
:1040200013E0CCE1D3E004C0FE010E94041E2196FF
:0A403000CD31D107C9F7F894FFCF96
:10403A00E80300000000E702800000020400030019
:10404A000110030200000302010006000400060535
:10405A0000200605040000000000350E47038F11FA
:10406A008E11B106400A0E0AA50924096509E11054
:10407A00EF0B590B94064208B3083108DE0F660F9E
:10408A00070FBA153206B701BE01C501CC01D3012B
:10409A00DA01E201EA01F201FA01020253746570DF
:1040AA003A20006E616E00696E66006F7666002EB9
:1040BA00002C00204D487A004144393835302031EF
:1040CA0020487A20746F2035204D487A20000D0A46
:1040DA000020202073696E65776176652067656EBA
:1040EA00657261746F720020203120487A00203195
:1040FA003020487A0020353020487A00313030208C
:10410A00487A0035303020487A00202031206B4828
:10411A007A00322E35206B487A00202035206B48F1
:10412A007A00203130206B487A00313030206B48D9
:0A413A007A00353030206B487A001F
:00000001FF
